[
    {
        "id": 0,
        "description": "2 accounts and 1 valid transaction.",
        "arity": 4,
        "chainIdSequencer": 400,
        "sequencerAddress": "0x617b3a3528F9cDd6630fd3301B9c8911F7Bf063D",
        "genesis": [
            {
                "address": "0x617b3a3528F9cDd6630fd3301B9c8911F7Bf063D",
                "pvtKey": "0x28b2b0318721be8c8339199172cd7cc8f5e273800a35616ec893083a4b32c02e",
                "balance": "100000000000000000000",
                "nonce": "0"
            },
            {
                "address": "0x4d5Cf5032B2a844602278b01199ED191A86c93ff",
                "pvtKey": "0x4d27a600dce8c29b7bd080e29a26972377dbb04d7a27d919adbb602bf13cfd23",
                "balance": "200000000000000000000",
                "nonce": "0"
            }
        ],
        "expectedOldRoot": "4091651772388093439828475955668620102367778455436412389529460210592290187513",
        "txs": [
            {
                "from": "0x617b3a3528F9cDd6630fd3301B9c8911F7Bf063D",
                "to": "0x4d5Cf5032B2a844602278b01199ED191A86c93ff",
                "nonce": 0,
                "value": "0.1",
                "gasLimit": 100000,
                "gasPrice": "1",
                "chainId": 400,
                "rawTx": "0xf86e80843b9aca00830186a0944d5cf5032b2a844602278b01199ed191a86c93ff88016345785d8a000080820344a0a9683074bcc81dba07fad2ac4015cf2eba4807c1aa1a8d291e77317a45fc2023a03d9ad247102178817ab2714984b4deb48bedd6ec06da0471745a81c60d1ab0b5",
                "reason": ""
            }
        ],
        "expectedNewRoot": "16839349720732534632663634369605785751289107377345624633588697492886148997782",
        "expectedNewLeafs": {
            "0x617b3a3528F9cDd6630fd3301B9c8911F7Bf063D": {
                "balance": "99900000000000000000",
                "nonce": "1"
            },
            "0x4d5Cf5032B2a844602278b01199ED191A86c93ff": {
                "balance": "200100000000000000000",
                "nonce": "0"
            }
        },
        "fullTransactionString": "0xf86e80843b9aca00830186a0944d5cf5032b2a844602278b01199ed191a86c93ff88016345785d8a000080820344a0a9683074bcc81dba07fad2ac4015cf2eba4807c1aa1a8d291e77317a45fc2023a03d9ad247102178817ab2714984b4deb48bedd6ec06da0471745a81c60d1ab0b5",
        "localExitRoot": "10742956179515319100591595038388130427995406579252011098325992000171378207294",
        "globalExitRoot": "4091651772388093439828475955668620102367778455436412389529460210592290187513",
        "newLocalExitRoot": "10742956179515319100591595038388130427995406579252011098325992000171378207294",
        "inputHash": "0x8d499445d264401141d32930d2b698823303796b3354346d292a8a9dbfb2be4a",
        "batchL2HashData": "0x652bbc19ec4aa6b4f462e9214c27c0128226edbbf1a87e2856ecb3a69320aeee"
    },
    {
        "id": 1,
        "description": "5 accounts. 2 valid tx, 3 invalid tx (same amount as balance, invalid nonce, invalid chain id 1)",
        "arity": 4,
        "chainIdSequencer": 400,
        "sequencerAddress": "0x617b3a3528F9cDd6630fd3301B9c8911F7Bf063D",
        "genesis": [
            {
                "address": "0x617b3a3528F9cDd6630fd3301B9c8911F7Bf063D",
                "pvtKey": "0x28b2b0318721be8c8339199172cd7cc8f5e273800a35616ec893083a4b32c02e",
                "balance": "100000000000000000000",
                "nonce": "0"
            },
            {
                "address": "0x4d5Cf5032B2a844602278b01199ED191A86c93ff",
                "pvtKey": "0x4d27a600dce8c29b7bd080e29a26972377dbb04d7a27d919adbb602bf13cfd23",
                "balance": "200000000000000000000",
                "nonce": "0"
            },
            {
                "address": "0xeB17ce701E9D92724AA2ABAdA7E4B28830597Dd9",
                "pvtKey": "0x1d0722aff4b29780e9a78e0bf28d5e127fb276cfbb0c3eb6a0e1728401777f17",
                "balance": "100000000000000000000",
                "nonce": "0"
            },
            {
                "address": "0x187Bd40226A7073b49163b1f6c2b73d8F2aa8478",
                "pvtKey": "0xd049e68efa0d85a3824c0b79f6817a986bb0cb3a075bcc2699118eca881d70ce",
                "balance": "000000000000000000000",
                "nonce": "0"
            },
            {
                "address": "0xabCcEd19d7f290B84608feC510bEe872CC8F5112",
                "pvtKey": "0x0b929d50d7fda8155539e6befa96ff297e3e9ebce4d908f570310bdf774cb32b",
                "balance": "000000000000000000000",
                "nonce": "0"
            }
        ],
        "expectedOldRoot": "10742956179515319100591595038388130427995406579252011098325992000171378207294",
        "txs": [
            {
                "id": 0,
                "from": "0x617b3a3528F9cDd6630fd3301B9c8911F7Bf063D",
                "to": "0x4d5Cf5032B2a844602278b01199ED191A86c93ff",
                "nonce": 0,
                "value": "0.1",
                "gasLimit": 100000,
                "gasPrice": "1",
                "chainId": 400,
                "rawTx": "0xf86e80843b9aca00830186a0944d5cf5032b2a844602278b01199ed191a86c93ff88016345785d8a000080820344a0a9683074bcc81dba07fad2ac4015cf2eba4807c1aa1a8d291e77317a45fc2023a03d9ad247102178817ab2714984b4deb48bedd6ec06da0471745a81c60d1ab0b5",
                "reason": ""
            },
            {
                "id": 1,
                "from": "0xeB17ce701E9D92724AA2ABAdA7E4B28830597Dd9",
                "to": "0x187Bd40226A7073b49163b1f6c2b73d8F2aa8478",
                "nonce": 0,
                "value": "1000",
                "gasLimit": 100000,
                "gasPrice": "1",
                "chainId": 400,
                "rawTx": "0xf86f80843b9aca00830186a094187bd40226a7073b49163b1f6c2b73d8f2aa8478893635c9adc5dea0000080820343a0d0f11c506e8606f49759222a30e767212c6f6f671c6c4073664b49cc1ff3dde2a02dd180dea53b190e6053fe9c467672c5fdb299b3b2fd5e9cf7497b52d1bcd80f",
                "reason": "TX INVALID: Not enough funds to pay total transaction cost"
            },
            {
                "id": 2,
                "from": "0xeB17ce701E9D92724AA2ABAdA7E4B28830597Dd9",
                "to": "0x187Bd40226A7073b49163b1f6c2b73d8F2aa8478",
                "nonce": 0,
                "value": "1",
                "gasLimit": 100000,
                "gasPrice": "1",
                "chainId": 1,
                "rawTx": "0xf86c80843b9aca00830186a094187bd40226a7073b49163b1f6c2b73d8f2aa8478880de0b6b3a76400008025a0803fc443307ddda6c4a8e922f0a02c3a00df8de7701ab99d78954c3dc4aa7009a05407070d5186dd0a95a232f4276949e43d54f4ed120732f98776dd42ceb7cada",
                "reason": ""
            },
            {
                "id": 3,
                "from": "0xeB17ce701E9D92724AA2ABAdA7E4B28830597Dd9",
                "to": "0xabCcEd19d7f290B84608feC510bEe872CC8F5112",
                "nonce": 0,
                "value": "1",
                "gasLimit": 100000,
                "gasPrice": "1",
                "chainId": 400,
                "rawTx": "0xf86e80843b9aca00830186a094abcced19d7f290b84608fec510bee872cc8f5112880de0b6b3a764000080820343a0b3672951e7ad1c60799a7c5ea89eee4165b2bedce92517ca410b5efcf5471f2ba012c3894e1d00ef3ad457495e46ce38fdbbc901802ca61db9832a9a024f491e51",
                "reason": "TX INVALID: Invalid nonce"
            },
            {
                "id": 4,
                "from": "0xeB17ce701E9D92724AA2ABAdA7E4B28830597Dd9",
                "to": "0xabCcEd19d7f290B84608feC510bEe872CC8F5112",
                "nonce": 0,
                "value": "1",
                "gasLimit": 100000,
                "gasPrice": "1",
                "chainId": 0,
                "rawTx": "0xf86c80843b9aca00830186a094abcced19d7f290b84608fec510bee872cc8f5112880de0b6b3a7640000801ba02c92035bc11227e9e94ba066a6d77a65c43d29dfb4a855c9464e1b60fabd6334a07171c6dc84816ffcf025040cd6193ecef3928a0c4e4964ddba320826b76c725d",
                "reason": "TX INVALID: Chain ID does not match"
            }
        ],
        "expectedNewRoot": "9568962050771181857833105459529305734534076689529052064550105938569302461613",
        "expectedNewLeafs": {
            "0x617b3a3528F9cDd6630fd3301B9c8911F7Bf063D": {
                "balance": "99900021000000000000",
                "nonce": "1"
            },
            "0x4d5Cf5032B2a844602278b01199ED191A86c93ff": {
                "balance": "200100000000000000000",
                "nonce": "0"
            },
            "0xeB17ce701E9D92724AA2ABAdA7E4B28830597Dd9": {
                "balance": "98999979000000000000",
                "nonce": "1"
            },
            "0x187Bd40226A7073b49163b1f6c2b73d8F2aa8478": {
                "balance": "1000000000000000000",
                "nonce": "0"
            },
            "0xabCcEd19d7f290B84608feC510bEe872CC8F5112": {
                "balance": "0",
                "nonce": "0"
            }
        },
        "fullTransactionString": "0xf86e80843b9aca00830186a0944d5cf5032b2a844602278b01199ed191a86c93ff88016345785d8a000080820344a0a9683074bcc81dba07fad2ac4015cf2eba4807c1aa1a8d291e77317a45fc2023a03d9ad247102178817ab2714984b4deb48bedd6ec06da0471745a81c60d1ab0b5f86f80843b9aca00830186a094187bd40226a7073b49163b1f6c2b73d8f2aa8478893635c9adc5dea0000080820343a0d0f11c506e8606f49759222a30e767212c6f6f671c6c4073664b49cc1ff3dde2a02dd180dea53b190e6053fe9c467672c5fdb299b3b2fd5e9cf7497b52d1bcd80ff86c80843b9aca00830186a094187bd40226a7073b49163b1f6c2b73d8f2aa8478880de0b6b3a76400008025a0803fc443307ddda6c4a8e922f0a02c3a00df8de7701ab99d78954c3dc4aa7009a05407070d5186dd0a95a232f4276949e43d54f4ed120732f98776dd42ceb7cadaf86e80843b9aca00830186a094abcced19d7f290b84608fec510bee872cc8f5112880de0b6b3a764000080820343a0b3672951e7ad1c60799a7c5ea89eee4165b2bedce92517ca410b5efcf5471f2ba012c3894e1d00ef3ad457495e46ce38fdbbc901802ca61db9832a9a024f491e51f86c80843b9aca00830186a094abcced19d7f290b84608fec510bee872cc8f5112880de0b6b3a7640000801ba02c92035bc11227e9e94ba066a6d77a65c43d29dfb4a855c9464e1b60fabd6334a07171c6dc84816ffcf025040cd6193ecef3928a0c4e4964ddba320826b76c725d",
        "localExitRoot": "10742956179515319100591595038388130427995406579252011098325992000171378207294",
        "globalExitRoot": "4091651772388093439828475955668620102367778455436412389529460210592290187513",
        "newLocalExitRoot": "10742956179515319100591595038388130427995406579252011098325992000171378207294",
        "inputHash": "0xcb1534f96656d51a2925cf70d5c623d2295bf2c515d17a83f1c934dd1522d311",
        "batchL2HashData": "0xbf397a149d2fffbc433ecd227866676fe2622487a2c64ea57fa6e684b9b99a2a"
    },
    {
        "id": 2,
        "description": "2 accounts and 1 invalid tx (tx with more value than balance). Old root equals new root.",
        "arity": 4,
        "chainIdSequencer": 400,
        "sequencerAddress": "0x617b3a3528F9cDd6630fd3301B9c8911F7Bf063D",
        "genesis": [
            {
                "address": "0x617b3a3528F9cDd6630fd3301B9c8911F7Bf063D",
                "pvtKey": "0x28b2b0318721be8c8339199172cd7cc8f5e273800a35616ec893083a4b32c02e",
                "balance": "100000000000000000000",
                "nonce": "0"
            },
            {
                "address": "0x4d5Cf5032B2a844602278b01199ED191A86c93ff",
                "pvtKey": "0x4d27a600dce8c29b7bd080e29a26972377dbb04d7a27d919adbb602bf13cfd23",
                "balance": "200000000000000000000",
                "nonce": "0"
            }
        ],
        "expectedOldRoot": "4091651772388093439828475955668620102367778455436412389529460210592290187513",
        "txs": [
            {
                "id": 0,
                "from": "0x617b3a3528F9cDd6630fd3301B9c8911F7Bf063D",
                "to": "0x4d5Cf5032B2a844602278b01199ED191A86c93ff",
                "nonce": 0,
                "value": "10000",
                "gasLimit": 100000,
                "gasPrice": "1",
                "chainId": 400,
                "rawTx": "0xf87080843b9aca00830186a0944d5cf5032b2a844602278b01199ed191a86c93ff8a021e19e0c9bab240000080820344a001b48d462a4d85e850d36a297d79cd78235b6aa98d0e76318a8e2c4dcd39d881a0277093ef3e6d2f2970e6386eefaac403f7575a5a7855ab0b4ccad6bc2dab081d",
                "reason": "TX INVALID: Not enough funds to pay total transaction cost"
            }
        ],
        "expectedNewRoot": "4091651772388093439828475955668620102367778455436412389529460210592290187513",
        "expectedNewLeafs": {
            "0x617b3a3528F9cDd6630fd3301B9c8911F7Bf063D": {
                "balance": "100000000000000000000",
                "nonce": "0"
            },
            "0x4d5Cf5032B2a844602278b01199ED191A86c93ff": {
                "balance": "200000000000000000000",
                "nonce": "0"
            }
        },
        "fullTransactionString": "0xf87080843b9aca00830186a0944d5cf5032b2a844602278b01199ed191a86c93ff8a021e19e0c9bab240000080820344a001b48d462a4d85e850d36a297d79cd78235b6aa98d0e76318a8e2c4dcd39d881a0277093ef3e6d2f2970e6386eefaac403f7575a5a7855ab0b4ccad6bc2dab081d",
        "localExitRoot": "10742956179515319100591595038388130427995406579252011098325992000171378207294",
        "globalExitRoot": "4091651772388093439828475955668620102367778455436412389529460210592290187513",
        "newLocalExitRoot": "10742956179515319100591595038388130427995406579252011098325992000171378207294",
        "inputHash": "0x269fc9631d16a4c703e49286126b4b89b4962615e7ceb06e109d9fd411c793be",
        "batchL2HashData": "0x7c289927b403b4ad0a52f3eb85c199620f226162c38271d0f91c4cccf79c978d"
    },
    {
        "id": 3,
        "description": "2 accounts and 4 invalid transactions. Two of the transactions have invalid from and to address so no rawTx is provided for them, can be ignored.Tx with same amount than balance and tx with invalid chain id (different chain id than sequencer). Old root equals new root",
        "arity": 4,
        "chainIdSequencer": 400,
        "sequencerAddress": "0x617b3a3528F9cDd6630fd3301B9c8911F7Bf063D",
        "genesis": [
            {
                "address": "0x617b3a3528F9cDd6630fd3301B9c8911F7Bf063D",
                "pvtKey": "0x28b2b0318721be8c8339199172cd7cc8f5e273800a35616ec893083a4b32c02e",
                "balance": "100000000000000000000",
                "nonce": "0"
            },
            {
                "address": "0x4d5Cf5032B2a844602278b01199ED191A86c93ff",
                "pvtKey": "0x4d27a600dce8c29b7bd080e29a26972377dbb04d7a27d919adbb602bf13cfd23",
                "balance": "200000000000000000000",
                "nonce": "0"
            }
        ],
        "expectedOldRoot": "4091651772388093439828475955668620102367778455436412389529460210592290187513",
        "txs": [
            {
                "id": 0,
                "from": "0x617b3a3528F9cDd6630fd3301B9c8911F7Bf063D",
                "to": "0x4d5Cf5032B2a844602278b01199ED191A86c93ff",
                "nonce": 0,
                "value": "0.1",
                "gasLimit": 100000,
                "gasPrice": "1",
                "chainId": 401,
                "rawTx": "0xf86e80843b9aca00830186a0944d5cf5032b2a844602278b01199ed191a86c93ff88016345785d8a000080820346a06e209c61ca92c2b980d6197e7ac9ccc3f547bf13be6455dfe682aa5dda9655efa016819a7edcc3fefec81ca97c7a6f3d10ec774440e409adbba693ce8b698d41f1",
                "reason": "TX INVALID: Chain ID does not match"
            },
            {
                "id": 1,
                "from": "0x617b3a3528F9cDd6630fd3301B9c8911F7Bf063D",
                "to": "0x4d5Cf5032B2a844602278b01199ED191A86c93f",
                "nonce": 0,
                "value": "0.1",
                "gasLimit": 100000,
                "gasPrice": "1",
                "chainId": 400,
                "reason": ""
            },
            {
                "id": 2,
                "from": "0x617b3a3528F9cDd6630fd3301B9c8911F7Bf03D",
                "to": "0x4d5Cf5032B2a844602278b01199ED191A86c93ff",
                "nonce": 0,
                "value": "0.1",
                "gasLimit": 100000,
                "gasPrice": "1",
                "chainId": 400,
                "reason": ""
            },
            {
                "id": 3,
                "from": "0x617b3a3528F9cDd6630fd3301B9c8911F7Bf063D",
                "to": "0x4d5Cf5032B2a844602278b01199ED191A86c93ff",
                "nonce": 0,
                "value": "100",
                "gasLimit": 100000,
                "gasPrice": "1",
                "chainId": 400,
                "rawTx": "0xf86f80843b9aca00830186a0944d5cf5032b2a844602278b01199ed191a86c93ff89056bc75e2d6310000080820344a04d33f299985c01a539ca9f7c04c700c49cd93ab8af32d61df807b7c66bec2af7a01fec7d7cd8ac1587fdfff9da57fca66117dc86cf264cd13bf9d7660d7f7b0ef4",
                "reason": "TX INVALID: Not enough funds to pay total transaction cost"
            }
        ],
        "expectedNewRoot": "4091651772388093439828475955668620102367778455436412389529460210592290187513",
        "expectedNewLeafs": {
            "0x617b3a3528F9cDd6630fd3301B9c8911F7Bf063D": {
                "balance": "100000000000000000000",
                "nonce": "0"
            },
            "0x4d5Cf5032B2a844602278b01199ED191A86c93ff": {
                "balance": "200000000000000000000",
                "nonce": "0"
            }
        },
        "fullTransactionString": "0xf86e80843b9aca00830186a0944d5cf5032b2a844602278b01199ed191a86c93ff88016345785d8a000080820346a06e209c61ca92c2b980d6197e7ac9ccc3f547bf13be6455dfe682aa5dda9655efa016819a7edcc3fefec81ca97c7a6f3d10ec774440e409adbba693ce8b698d41f1f86f80843b9aca00830186a0944d5cf5032b2a844602278b01199ed191a86c93ff89056bc75e2d6310000080820344a04d33f299985c01a539ca9f7c04c700c49cd93ab8af32d61df807b7c66bec2af7a01fec7d7cd8ac1587fdfff9da57fca66117dc86cf264cd13bf9d7660d7f7b0ef4",
        "localExitRoot": "10742956179515319100591595038388130427995406579252011098325992000171378207294",
        "globalExitRoot": "4091651772388093439828475955668620102367778455436412389529460210592290187513",
        "newLocalExitRoot": "10742956179515319100591595038388130427995406579252011098325992000171378207294",
        "inputHash": "0xe760f48f89912c4b3ae933e692844bde5f255f5f147a7af81d464469aa44885c",
        "batchL2HashData": "0xd8f61901756ca05347b2f470b29d294ab95d1089b84118eb63e6a19a20a73900"
    },
    {
        "id": 4,
        "description": "2 accounts and 1 invalid transaction. Wrong encode of the tx (invalid signature). Old root equals new root",
        "arity": 4,
        "chainIdSequencer": 400,
        "sequencerAddress": "0x617b3a3528F9cDd6630fd3301B9c8911F7Bf063D",
        "genesis": [
            {
                "address": "0x617b3a3528F9cDd6630fd3301B9c8911F7Bf063D",
                "pvtKey": "0x28b2b0318721be8c8339199172cd7cc8f5e273800a35616ec893083a4b32c02e",
                "balance": "100000000000000000000",
                "nonce": "0"
            },
            {
                "address": "0x4d5Cf5032B2a844602278b01199ED191A86c93ff",
                "pvtKey": "0x4d27a600dce8c29b7bd080e29a26972377dbb04d7a27d919adbb602bf13cfd23",
                "balance": "200000000000000000000",
                "nonce": "0"
            }
        ],
        "expectedOldRoot": "4091651772388093439828475955668620102367778455436412389529460210592290187513",
        "txs": [
            {
                "encodeInvalidData": true,
                "id": 0,
                "from": "0x617b3a3528F9cDd6630fd3301B9c8911F7Bf063D",
                "to": "0x4d5Cf5032B2a844602278b01199ED191A86c93ff",
                "nonce": 0,
                "value": "0.1",
                "gasLimit": 100000,
                "gasPrice": "1",
                "chainId": 400,
                "rawTx": "0xf86e80843b9aca00830186a0944d5cf5032b2a844602278b01199ed191a86c93ff88016345785d8a000080820344a0a9683074bcc81dba07fad2ac4015cf2eba4807c1aa1a8d291e77317a45fc2023a03d9ad247102178817ab2714984b4deb48bedd6ec06da0471745a81c60d1ab0b5",
                "reason": "TX INVALID: Failed to RLP decode raw transaction"
            }
        ],
        "expectedNewRoot": "4091651772388093439828475955668620102367778455436412389529460210592290187513",
        "expectedNewLeafs": {
            "0x617b3a3528F9cDd6630fd3301B9c8911F7Bf063D": {
                "balance": "100000000000000000000",
                "nonce": "0"
            },
            "0x4d5Cf5032B2a844602278b01199ED191A86c93ff": {
                "balance": "200000000000000000000",
                "nonce": "0"
            }
        },
        "fullTransactionString": "0xf86e80843b9aca00830186a0944d5cf5032b2a844602278b01199ed191a86c93ff88016345785d8a000080820344a0a9683074bcc81dba07fad2ac4015cf2eba4807c1aa1a8d291e77317a45fc2023a03d9ad247102178817ab2714984b4deb48bedd6ec06da0471745a81c60d",
        "localExitRoot": "10742956179515319100591595038388130427995406579252011098325992000171378207294",
        "globalExitRoot": "4091651772388093439828475955668620102367778455436412389529460210592290187513",
        "newLocalExitRoot": "10742956179515319100591595038388130427995406579252011098325992000171378207294",
        "inputHash": "0x1da2038b5e5d7af5c1669f31ac1d6d69c5ff455b0702f7f1bbaf353f2f2f04b2",
        "batchL2HashData": "0xa8f696da9dcb31f23372dd1dcea5e09410cf16131b7dac596edf63713bee9011"
    }
]