[
    {
        "id": 0,
        "description": "2 accounts and 1 valid transaction.",
        "arity": 4,
        "chainIdSequencer": 400,
        "sequencerAddress": "0x617b3a3528F9cDd6630fd3301B9c8911F7Bf063D",
        "genesis": [
            {
                "address": "0x617b3a3528F9cDd6630fd3301B9c8911F7Bf063D",
                "pvtKey": "0x28b2b0318721be8c8339199172cd7cc8f5e273800a35616ec893083a4b32c02e",
                "balance": "100000000000000000000",
                "nonce": "0"
            },
            {
                "address": "0x4d5Cf5032B2a844602278b01199ED191A86c93ff",
                "pvtKey": "0x4d27a600dce8c29b7bd080e29a26972377dbb04d7a27d919adbb602bf13cfd23",
                "balance": "200000000000000000000",
                "nonce": "0"
            }
        ],
        "expectedOldRoot": "4091651772388093439828475955668620102367778455436412389529460210592290187513",
        "txs": [
            {
                "from": "0x617b3a3528F9cDd6630fd3301B9c8911F7Bf063D",
                "to": "0x4d5Cf5032B2a844602278b01199ED191A86c93ff",
                "nonce": 0,
                "value": "0.1",
                "gasLimit": 100000,
                "gasPrice": "1",
                "chainId": 400,
                "rawTx": "0xf86e80843b9aca00830186a0944d5cf5032b2a844602278b01199ed191a86c93ff88016345785d8a000080820344a0a9683074bcc81dba07fad2ac4015cf2eba4807c1aa1a8d291e77317a45fc2023a03d9ad247102178817ab2714984b4deb48bedd6ec06da0471745a81c60d1ab0b5",
                "reason": ""
            }
        ],
        "expectedNewRoot": "16839349720732534632663634369605785751289107377345624633588697492886148997782",
        "expectedNewLeafs": {
            "0x617b3a3528F9cDd6630fd3301B9c8911F7Bf063D": {
                "balance": "99900000000000000000",
                "nonce": "1"
            },
            "0x4d5Cf5032B2a844602278b01199ED191A86c93ff": {
                "balance": "200100000000000000000",
                "nonce": "0"
            }
        },
        "batchL2Data": "0xf872b870f86e80843b9aca00830186a0944d5cf5032b2a844602278b01199ed191a86c93ff88016345785d8a000080820344a0a9683074bcc81dba07fad2ac4015cf2eba4807c1aa1a8d291e77317a45fc2023a03d9ad247102178817ab2714984b4deb48bedd6ec06da0471745a81c60d1ab0b5",
        "localExitRoot": "10742956179515319100591595038388130427995406579252011098325992000171378207294",
        "globalExitRoot": "4091651772388093439828475955668620102367778455436412389529460210592290187513",
        "newLocalExitRoot": "10742956179515319100591595038388130427995406579252011098325992000171378207294",
        "inputHash": "0x362f3545443137da8ca15bdd98b7949242c5893290e5d97026d8e1299b790593",
        "batchHashData": "0x77de23c5eb8e4f7e544fbb4fbcaccbedc9e4d9d9d3cde881472f4678e5ffb132"
    },
    {
        "id": 1,
        "description": "5 accounts. 2 valid tx, 3 invalid tx (same amount as balance, invalid nonce, invalid chain id 1)",
        "arity": 4,
        "chainIdSequencer": 400,
        "sequencerAddress": "0x617b3a3528F9cDd6630fd3301B9c8911F7Bf063D",
        "genesis": [
            {
                "address": "0x617b3a3528F9cDd6630fd3301B9c8911F7Bf063D",
                "pvtKey": "0x28b2b0318721be8c8339199172cd7cc8f5e273800a35616ec893083a4b32c02e",
                "balance": "100000000000000000000",
                "nonce": "0"
            },
            {
                "address": "0x4d5Cf5032B2a844602278b01199ED191A86c93ff",
                "pvtKey": "0x4d27a600dce8c29b7bd080e29a26972377dbb04d7a27d919adbb602bf13cfd23",
                "balance": "200000000000000000000",
                "nonce": "0"
            },
            {
                "address": "0xeB17ce701E9D92724AA2ABAdA7E4B28830597Dd9",
                "pvtKey": "0x1d0722aff4b29780e9a78e0bf28d5e127fb276cfbb0c3eb6a0e1728401777f17",
                "balance": "100000000000000000000",
                "nonce": "0"
            },
            {
                "address": "0x187Bd40226A7073b49163b1f6c2b73d8F2aa8478",
                "pvtKey": "0xd049e68efa0d85a3824c0b79f6817a986bb0cb3a075bcc2699118eca881d70ce",
                "balance": "000000000000000000000",
                "nonce": "0"
            },
            {
                "address": "0xabCcEd19d7f290B84608feC510bEe872CC8F5112",
                "pvtKey": "0x0b929d50d7fda8155539e6befa96ff297e3e9ebce4d908f570310bdf774cb32b",
                "balance": "000000000000000000000",
                "nonce": "0"
            }
        ],
        "expectedOldRoot": "10742956179515319100591595038388130427995406579252011098325992000171378207294",
        "txs": [
            {
                "id": 0,
                "from": "0x617b3a3528F9cDd6630fd3301B9c8911F7Bf063D",
                "to": "0x4d5Cf5032B2a844602278b01199ED191A86c93ff",
                "nonce": 0,
                "value": "0.1",
                "gasLimit": 100000,
                "gasPrice": "1",
                "chainId": 400,
                "rawTx": "0xf86e80843b9aca00830186a0944d5cf5032b2a844602278b01199ed191a86c93ff88016345785d8a000080820344a0a9683074bcc81dba07fad2ac4015cf2eba4807c1aa1a8d291e77317a45fc2023a03d9ad247102178817ab2714984b4deb48bedd6ec06da0471745a81c60d1ab0b5",
                "reason": ""
            },
            {
                "id": 1,
                "from": "0xeB17ce701E9D92724AA2ABAdA7E4B28830597Dd9",
                "to": "0x187Bd40226A7073b49163b1f6c2b73d8F2aa8478",
                "nonce": 0,
                "value": "1000",
                "gasLimit": 100000,
                "gasPrice": "1",
                "chainId": 400,
                "rawTx": "0xf86f80843b9aca00830186a094187bd40226a7073b49163b1f6c2b73d8f2aa8478893635c9adc5dea0000080820343a0d0f11c506e8606f49759222a30e767212c6f6f671c6c4073664b49cc1ff3dde2a02dd180dea53b190e6053fe9c467672c5fdb299b3b2fd5e9cf7497b52d1bcd80f",
                "reason": "TX INVALID: Not enough funds to pay total transaction cost"
            },
            {
                "id": 2,
                "from": "0xeB17ce701E9D92724AA2ABAdA7E4B28830597Dd9",
                "to": "0x187Bd40226A7073b49163b1f6c2b73d8F2aa8478",
                "nonce": 0,
                "value": "1",
                "gasLimit": 100000,
                "gasPrice": "1",
                "chainId": 100000,
                "rawTx": "0xf86f80843b9aca00830186a094187bd40226a7073b49163b1f6c2b73d8f2aa8478880de0b6b3a76400008083030d63a0288e9248372d6826f93f01fa26543a84dcacd262f79a5094efb49ea4eba56084a078ab0dc58ea1775ef777fcfc0f72e016207d7f1172413f0927c1913dc05fd244",
                "reason": ""
            },
            {
                "id": 3,
                "from": "0xeB17ce701E9D92724AA2ABAdA7E4B28830597Dd9",
                "to": "0xabCcEd19d7f290B84608feC510bEe872CC8F5112",
                "nonce": 0,
                "value": "1",
                "gasLimit": 100000,
                "gasPrice": "1",
                "chainId": 400,
                "rawTx": "0xf86e80843b9aca00830186a094abcced19d7f290b84608fec510bee872cc8f5112880de0b6b3a764000080820343a0b3672951e7ad1c60799a7c5ea89eee4165b2bedce92517ca410b5efcf5471f2ba012c3894e1d00ef3ad457495e46ce38fdbbc901802ca61db9832a9a024f491e51",
                "reason": "TX INVALID: Invalid nonce"
            },
            {
                "id": 4,
                "from": "0xeB17ce701E9D92724AA2ABAdA7E4B28830597Dd9",
                "to": "0xabCcEd19d7f290B84608feC510bEe872CC8F5112",
                "nonce": 0,
                "value": "1",
                "gasLimit": 100000,
                "gasPrice": "1",
                "chainId": 0,
                "rawTx": "0xf86c80843b9aca00830186a094abcced19d7f290b84608fec510bee872cc8f5112880de0b6b3a7640000801ba02c92035bc11227e9e94ba066a6d77a65c43d29dfb4a855c9464e1b60fabd6334a07171c6dc84816ffcf025040cd6193ecef3928a0c4e4964ddba320826b76c725d",
                "reason": "TX INVALID: Chain ID does not match"
            }
        ],
        "expectedNewRoot": "9568962050771181857833105459529305734534076689529052064550105938569302461613",
        "expectedNewLeafs": {
            "0x617b3a3528F9cDd6630fd3301B9c8911F7Bf063D": {
                "balance": "99900021000000000000",
                "nonce": "1"
            },
            "0x4d5Cf5032B2a844602278b01199ED191A86c93ff": {
                "balance": "200100000000000000000",
                "nonce": "0"
            },
            "0xeB17ce701E9D92724AA2ABAdA7E4B28830597Dd9": {
                "balance": "98999979000000000000",
                "nonce": "1"
            },
            "0x187Bd40226A7073b49163b1f6c2b73d8F2aa8478": {
                "balance": "1000000000000000000",
                "nonce": "0"
            },
            "0xabCcEd19d7f290B84608feC510bEe872CC8F5112": {
                "balance": "0",
                "nonce": "0"
            }
        },
        "batchL2Data": "0xf9023ab870f86e80843b9aca00830186a0944d5cf5032b2a844602278b01199ed191a86c93ff88016345785d8a000080820344a0a9683074bcc81dba07fad2ac4015cf2eba4807c1aa1a8d291e77317a45fc2023a03d9ad247102178817ab2714984b4deb48bedd6ec06da0471745a81c60d1ab0b5b871f86f80843b9aca00830186a094187bd40226a7073b49163b1f6c2b73d8f2aa8478893635c9adc5dea0000080820343a0d0f11c506e8606f49759222a30e767212c6f6f671c6c4073664b49cc1ff3dde2a02dd180dea53b190e6053fe9c467672c5fdb299b3b2fd5e9cf7497b52d1bcd80fb871f86f80843b9aca00830186a094187bd40226a7073b49163b1f6c2b73d8f2aa8478880de0b6b3a76400008083030d63a0288e9248372d6826f93f01fa26543a84dcacd262f79a5094efb49ea4eba56084a078ab0dc58ea1775ef777fcfc0f72e016207d7f1172413f0927c1913dc05fd244b870f86e80843b9aca00830186a094abcced19d7f290b84608fec510bee872cc8f5112880de0b6b3a764000080820343a0b3672951e7ad1c60799a7c5ea89eee4165b2bedce92517ca410b5efcf5471f2ba012c3894e1d00ef3ad457495e46ce38fdbbc901802ca61db9832a9a024f491e51b86ef86c80843b9aca00830186a094abcced19d7f290b84608fec510bee872cc8f5112880de0b6b3a7640000801ba02c92035bc11227e9e94ba066a6d77a65c43d29dfb4a855c9464e1b60fabd6334a07171c6dc84816ffcf025040cd6193ecef3928a0c4e4964ddba320826b76c725d",
        "localExitRoot": "10742956179515319100591595038388130427995406579252011098325992000171378207294",
        "globalExitRoot": "4091651772388093439828475955668620102367778455436412389529460210592290187513",
        "newLocalExitRoot": "10742956179515319100591595038388130427995406579252011098325992000171378207294",
        "inputHash": "0x9ca4ec512e36a5c881251161c5b53196e3ecfa2806afe8c4af4cbe6e4286fb7c",
        "batchHashData": "0x8a712cd5537d1150dcab06e3b7546c98ec00cae520308822b00eb32b0383b535"
    },
    {
        "id": 2,
        "description": "2 accounts and 1 invalid tx (tx with more value than balance). Old root equals new root.",
        "arity": 4,
        "chainIdSequencer": 400,
        "sequencerAddress": "0x617b3a3528F9cDd6630fd3301B9c8911F7Bf063D",
        "genesis": [
            {
                "address": "0x617b3a3528F9cDd6630fd3301B9c8911F7Bf063D",
                "pvtKey": "0x28b2b0318721be8c8339199172cd7cc8f5e273800a35616ec893083a4b32c02e",
                "balance": "100000000000000000000",
                "nonce": "0"
            },
            {
                "address": "0x4d5Cf5032B2a844602278b01199ED191A86c93ff",
                "pvtKey": "0x4d27a600dce8c29b7bd080e29a26972377dbb04d7a27d919adbb602bf13cfd23",
                "balance": "200000000000000000000",
                "nonce": "0"
            }
        ],
        "expectedOldRoot": "4091651772388093439828475955668620102367778455436412389529460210592290187513",
        "txs": [
            {
                "id": 0,
                "from": "0x617b3a3528F9cDd6630fd3301B9c8911F7Bf063D",
                "to": "0x4d5Cf5032B2a844602278b01199ED191A86c93ff",
                "nonce": 0,
                "value": "10000",
                "gasLimit": 100000,
                "gasPrice": "1",
                "chainId": 400,
                "rawTx": "0xf87080843b9aca00830186a0944d5cf5032b2a844602278b01199ed191a86c93ff8a021e19e0c9bab240000080820344a001b48d462a4d85e850d36a297d79cd78235b6aa98d0e76318a8e2c4dcd39d881a0277093ef3e6d2f2970e6386eefaac403f7575a5a7855ab0b4ccad6bc2dab081d",
                "reason": "TX INVALID: Not enough funds to pay total transaction cost"
            }
        ],
        "expectedNewRoot": "4091651772388093439828475955668620102367778455436412389529460210592290187513",
        "expectedNewLeafs": {
            "0x617b3a3528F9cDd6630fd3301B9c8911F7Bf063D": {
                "balance": "100000000000000000000",
                "nonce": "0"
            },
            "0x4d5Cf5032B2a844602278b01199ED191A86c93ff": {
                "balance": "200000000000000000000",
                "nonce": "0"
            }
        },
        "batchL2Data": "0xf874b872f87080843b9aca00830186a0944d5cf5032b2a844602278b01199ed191a86c93ff8a021e19e0c9bab240000080820344a001b48d462a4d85e850d36a297d79cd78235b6aa98d0e76318a8e2c4dcd39d881a0277093ef3e6d2f2970e6386eefaac403f7575a5a7855ab0b4ccad6bc2dab081d",
        "localExitRoot": "10742956179515319100591595038388130427995406579252011098325992000171378207294",
        "globalExitRoot": "4091651772388093439828475955668620102367778455436412389529460210592290187513",
        "newLocalExitRoot": "10742956179515319100591595038388130427995406579252011098325992000171378207294",
        "inputHash": "0xe882ea5d5d21d26322e4d03749df7ac320140a08c7bba2eeba93bb5b0797f866",
        "batchHashData": "0x88ae8aee6baf022982605748ec35a2b9b1d810556cee973fc30a9a8172dd8352"
    },
    {
        "id": 3,
        "description": "2 accounts and 4 invalid transactions. Two of the transactions have invalid from and to address so no rawTx is provided for them, can be ignored.Tx with same amount than balance and tx with invalid chain id (different chain id than sequencer). Old root equals new root",
        "arity": 4,
        "chainIdSequencer": 400,
        "sequencerAddress": "0x617b3a3528F9cDd6630fd3301B9c8911F7Bf063D",
        "genesis": [
            {
                "address": "0x617b3a3528F9cDd6630fd3301B9c8911F7Bf063D",
                "pvtKey": "0x28b2b0318721be8c8339199172cd7cc8f5e273800a35616ec893083a4b32c02e",
                "balance": "100000000000000000000",
                "nonce": "0"
            },
            {
                "address": "0x4d5Cf5032B2a844602278b01199ED191A86c93ff",
                "pvtKey": "0x4d27a600dce8c29b7bd080e29a26972377dbb04d7a27d919adbb602bf13cfd23",
                "balance": "200000000000000000000",
                "nonce": "0"
            }
        ],
        "expectedOldRoot": "4091651772388093439828475955668620102367778455436412389529460210592290187513",
        "txs": [
            {
                "id": 0,
                "from": "0x617b3a3528F9cDd6630fd3301B9c8911F7Bf063D",
                "to": "0x4d5Cf5032B2a844602278b01199ED191A86c93ff",
                "nonce": 0,
                "value": "0.1",
                "gasLimit": 100000,
                "gasPrice": "1",
                "chainId": 401,
                "rawTx": "0xf86e80843b9aca00830186a0944d5cf5032b2a844602278b01199ed191a86c93ff88016345785d8a000080820346a06e209c61ca92c2b980d6197e7ac9ccc3f547bf13be6455dfe682aa5dda9655efa016819a7edcc3fefec81ca97c7a6f3d10ec774440e409adbba693ce8b698d41f1",
                "reason": "TX INVALID: Chain ID does not match"
            },
            {
                "id": 1,
                "from": "0x617b3a3528F9cDd6630fd3301B9c8911F7Bf063D",
                "to": "0x4d5Cf5032B2a844602278b01199ED191A86c93f",
                "nonce": 0,
                "value": "0.1",
                "gasLimit": 100000,
                "gasPrice": "1",
                "chainId": 400,
                "reason": ""
            },
            {
                "id": 2,
                "from": "0x617b3a3528F9cDd6630fd3301B9c8911F7Bf03D",
                "to": "0x4d5Cf5032B2a844602278b01199ED191A86c93ff",
                "nonce": 0,
                "value": "0.1",
                "gasLimit": 100000,
                "gasPrice": "1",
                "chainId": 400,
                "reason": ""
            },
            {
                "id": 3,
                "from": "0x617b3a3528F9cDd6630fd3301B9c8911F7Bf063D",
                "to": "0x4d5Cf5032B2a844602278b01199ED191A86c93ff",
                "nonce": 0,
                "value": "100",
                "gasLimit": 100000,
                "gasPrice": "1",
                "chainId": 400,
                "rawTx": "0xf86f80843b9aca00830186a0944d5cf5032b2a844602278b01199ed191a86c93ff89056bc75e2d6310000080820344a04d33f299985c01a539ca9f7c04c700c49cd93ab8af32d61df807b7c66bec2af7a01fec7d7cd8ac1587fdfff9da57fca66117dc86cf264cd13bf9d7660d7f7b0ef4",
                "reason": "TX INVALID: Not enough funds to pay total transaction cost"
            }
        ],
        "expectedNewRoot": "4091651772388093439828475955668620102367778455436412389529460210592290187513",
        "expectedNewLeafs": {
            "0x617b3a3528F9cDd6630fd3301B9c8911F7Bf063D": {
                "balance": "100000000000000000000",
                "nonce": "0"
            },
            "0x4d5Cf5032B2a844602278b01199ED191A86c93ff": {
                "balance": "200000000000000000000",
                "nonce": "0"
            }
        },
        "batchL2Data": "0xf8e5b870f86e80843b9aca00830186a0944d5cf5032b2a844602278b01199ed191a86c93ff88016345785d8a000080820346a06e209c61ca92c2b980d6197e7ac9ccc3f547bf13be6455dfe682aa5dda9655efa016819a7edcc3fefec81ca97c7a6f3d10ec774440e409adbba693ce8b698d41f1b871f86f80843b9aca00830186a0944d5cf5032b2a844602278b01199ed191a86c93ff89056bc75e2d6310000080820344a04d33f299985c01a539ca9f7c04c700c49cd93ab8af32d61df807b7c66bec2af7a01fec7d7cd8ac1587fdfff9da57fca66117dc86cf264cd13bf9d7660d7f7b0ef4",
        "localExitRoot": "10742956179515319100591595038388130427995406579252011098325992000171378207294",
        "globalExitRoot": "4091651772388093439828475955668620102367778455436412389529460210592290187513",
        "newLocalExitRoot": "10742956179515319100591595038388130427995406579252011098325992000171378207294",
        "inputHash": "0xdde9d73994ec840122ead32b76b6922ad4d45359fa6c80d97369d232349ea759",
        "batchHashData": "0x1ff3ebb4ffef67e4fa63fd1594619bae630462204580dd729c928f19274ad2e8"
    },
    {
        "id": 4,
        "description": "2 accounts and 1 invalid transaction. Wrong encode of the tx (invalid signature). Old root equals new root",
        "arity": 4,
        "chainIdSequencer": 400,
        "sequencerAddress": "0x617b3a3528F9cDd6630fd3301B9c8911F7Bf063D",
        "genesis": [
            {
                "address": "0x617b3a3528F9cDd6630fd3301B9c8911F7Bf063D",
                "pvtKey": "0x28b2b0318721be8c8339199172cd7cc8f5e273800a35616ec893083a4b32c02e",
                "balance": "100000000000000000000",
                "nonce": "0"
            },
            {
                "address": "0x4d5Cf5032B2a844602278b01199ED191A86c93ff",
                "pvtKey": "0x4d27a600dce8c29b7bd080e29a26972377dbb04d7a27d919adbb602bf13cfd23",
                "balance": "200000000000000000000",
                "nonce": "0"
            }
        ],
        "expectedOldRoot": "4091651772388093439828475955668620102367778455436412389529460210592290187513",
        "txs": [
            {
                "encodeInvalidData": true,
                "id": 0,
                "from": "0x617b3a3528F9cDd6630fd3301B9c8911F7Bf063D",
                "to": "0x4d5Cf5032B2a844602278b01199ED191A86c93ff",
                "nonce": 0,
                "value": "0.1",
                "gasLimit": 100000,
                "gasPrice": "1",
                "chainId": 400,
                "rawTx": "0xf86e80843b9aca00830186a0944d5cf5032b2a844602278b01199ed191a86c93ff88016345785d8a000080820344a0a9683074bcc81dba07fad2ac4015cf2eba4807c1aa1a8d291e77317a45fc2023a03d9ad247102178817ab2714984b4deb48bedd6ec06da0471745a81c60d1ab0b5",
                "reason": "TX INVALID: Failed to RLP decode raw transaction"
            }
        ],
        "expectedNewRoot": "4091651772388093439828475955668620102367778455436412389529460210592290187513",
        "expectedNewLeafs": {
            "0x617b3a3528F9cDd6630fd3301B9c8911F7Bf063D": {
                "balance": "100000000000000000000",
                "nonce": "0"
            },
            "0x4d5Cf5032B2a844602278b01199ED191A86c93ff": {
                "balance": "200000000000000000000",
                "nonce": "0"
            }
        },
        "batchL2Data": "0xf86fb86df86e80843b9aca00830186a0944d5cf5032b2a844602278b01199ed191a86c93ff88016345785d8a000080820344a0a9683074bcc81dba07fad2ac4015cf2eba4807c1aa1a8d291e77317a45fc2023a03d9ad247102178817ab2714984b4deb48bedd6ec06da0471745a81c60d",
        "localExitRoot": "10742956179515319100591595038388130427995406579252011098325992000171378207294",
        "globalExitRoot": "4091651772388093439828475955668620102367778455436412389529460210592290187513",
        "newLocalExitRoot": "10742956179515319100591595038388130427995406579252011098325992000171378207294",
        "inputHash": "0xa6c5bc4ad78fbd7f1c544312b962e6e302d65f7401d3943a0928b4c398cdf442",
        "batchHashData": "0x82190fb3005ab648ee812e3ec5d3699c033e6ddf67e5b1e08b84f818a1c2b51d"
    },
    {
        "id": 5,
        "description": "2 accounts and 1 valid transaction, from and to are the same",
        "arity": 4,
        "chainIdSequencer": 400,
        "sequencerAddress": "0x4d5Cf5032B2a844602278b01199ED191A86c93ff",
        "genesis": [
            {
                "address": "0x617b3a3528F9cDd6630fd3301B9c8911F7Bf063D",
                "pvtKey": "0x28b2b0318721be8c8339199172cd7cc8f5e273800a35616ec893083a4b32c02e",
                "balance": "100000000000000000000",
                "nonce": "0"
            },
            {
                "address": "0x4d5Cf5032B2a844602278b01199ED191A86c93ff",
                "pvtKey": "0x4d27a600dce8c29b7bd080e29a26972377dbb04d7a27d919adbb602bf13cfd23",
                "balance": "200000000000000000000",
                "nonce": "0"
            }
        ],
        "expectedOldRoot": "4091651772388093439828475955668620102367778455436412389529460210592290187513",
        "txs": [
            {
                "from": "0x617b3a3528F9cDd6630fd3301B9c8911F7Bf063D",
                "to": "0x617b3a3528F9cDd6630fd3301B9c8911F7Bf063D",
                "nonce": 0,
                "value": "0.1",
                "gasLimit": 100000,
                "gasPrice": "1",
                "chainId": 400,
                "rawTx": "0xf86e80843b9aca00830186a094617b3a3528f9cdd6630fd3301b9c8911f7bf063d88016345785d8a000080820343a0a9894ddb50be38c1442cbed273caf03811c12c3d5f3c94cf73926fbb09918fdea035f8e8c0e39d93b49755c492f16361588c5964479fef75a2992fa6618e19a3e4",
                "reason": ""
            }
        ],
        "expectedNewRoot": "17438486316409083994532643493058358002769362667109977490833048423880566432494",
        "expectedNewLeafs": {
            "0x617b3a3528F9cDd6630fd3301B9c8911F7Bf063D": {
                "balance": "99999979000000000000",
                "nonce": "1"
            },
            "0x4d5Cf5032B2a844602278b01199ED191A86c93ff": {
                "balance": "200000021000000000000",
                "nonce": "0"
            }
        },
        "batchL2Data": "0xf872b870f86e80843b9aca00830186a094617b3a3528f9cdd6630fd3301b9c8911f7bf063d88016345785d8a000080820343a0a9894ddb50be38c1442cbed273caf03811c12c3d5f3c94cf73926fbb09918fdea035f8e8c0e39d93b49755c492f16361588c5964479fef75a2992fa6618e19a3e4",
        "localExitRoot": "10742956179515319100591595038388130427995406579252011098325992000171378207294",
        "globalExitRoot": "4091651772388093439828475955668620102367778455436412389529460210592290187513",
        "newLocalExitRoot": "10742956179515319100591595038388130427995406579252011098325992000171378207294",
        "inputHash": "0x6108ae9f12d445d65917ea94515d290b66de174ced3b8ae4384a1ba84764d577",
        "batchHashData": "0x0dfe56f04279d8459ea45d1bbbf330a9cae19888213d98054ebef19262fe3865"
    }
]