{
 "genesis": "0xe3a7d8bae497945ba8ddc51c69564f60ad4c1a990b9c7bdbd27f7929bfa8f272",
 "verifierAddress": "0x9B9671dB83CfcB4508bF361942488C5cA2b1286D",
 "consensusContract": "PolygonValidiumEtrog",
 "scheduleData": "0x01d5062a0000000000000000000000005132a183e9f3cb7c848b0aac5ae0c4f0491b7ab2000000000000000000000000000000000000000000000000000000000000000000000000000000000000000000000000000000000000000000000000000000c00000000000000000000000000000000000000000000000000000000000000000000000000000000000000000000000000000000000000000000000000000000000000000000000000000000000000000000000000000000000000000000d2f000000000000000000000000000000000000000000000000000000000000000144f34eb8eb000000000000000000000000427113ae6f319bffb4459bff96eb8b6bde1a127f0000000000000000000000009b9671db83cfcb4508bf361942488c5ca2b1286d000000000000000000000000000000000000000000000000000000000000000c0000000000000000000000000000000000000000000000000000000000000000e3a7d8bae497945ba8ddc51c69564f60ad4c1a990b9c7bdbd27f7929bfa8f27200000000000000000000000000000000000000000000000000000000000000c0000000000000000000000000000000000000000000000000000000000000005f547970653a2056616c696469756d2c2056657273696f6e3a2042616e616e61202c2067656e657369733a202f697066732f516d55586e526f5062556d5a75455a43477969486a45736f4e6346567533684c74537668706e664253326d4159550000000000000000000000000000000000000000000000000000000000",
 "executeData": "0x134008d30000000000000000000000005132a183e9f3cb7c848b0aac5ae0c4f0491b7ab2000000000000000000000000000000000000000000000000000000000000000000000000000000000000000000000000000000000000000000000000000000a0000000000000000000000000000000000000000000000000000000000000000000000000000000000000000000000000000000000000000000000000000000000000000000000000000000000000000000000000000000000000000000000144f34eb8eb000000000000000000000000427113ae6f319bffb4459bff96eb8b6bde1a127f0000000000000000000000009b9671db83cfcb4508bf361942488c5ca2b1286d000000000000000000000000000000000000000000000000000000000000000c0000000000000000000000000000000000000000000000000000000000000000e3a7d8bae497945ba8ddc51c69564f60ad4c1a990b9c7bdbd27f7929bfa8f27200000000000000000000000000000000000000000000000000000000000000c0000000000000000000000000000000000000000000000000000000000000005f547970653a2056616c696469756d2c2056657273696f6e3a2042616e616e61202c2067656e657369733a202f697066732f516d55586e526f5062556d5a75455a43477969486a45736f4e6346567533684c74537668706e664253326d4159550000000000000000000000000000000000000000000000000000000000",
 "id": "0x8fcaf796dd4cae11d4568a49db2a14f310897611fe142f2b7859d297e44cb41a",
 "decodedScheduleData": {
  "target": "0x5132A183E9F3CB7C848b0AAC5Ae0c4f0491B7aB2",
  "value": "0",
  "data": "0xf34eb8eb000000000000000000000000427113ae6f319bffb4459bff96eb8b6bde1a127f0000000000000000000000009b9671db83cfcb4508bf361942488c5ca2b1286d000000000000000000000000000000000000000000000000000000000000000c0000000000000000000000000000000000000000000000000000000000000000e3a7d8bae497945ba8ddc51c69564f60ad4c1a990b9c7bdbd27f7929bfa8f27200000000000000000000000000000000000000000000000000000000000000c0000000000000000000000000000000000000000000000000000000000000005f547970653a2056616c696469756d2c2056657273696f6e3a2042616e616e61202c2067656e657369733a202f697066732f516d55586e526f5062556d5a75455a43477969486a45736f4e6346567533684c74537668706e664253326d41595500",
  "decodedData": {
   "consensusImplementation": "0x427113ae6F319BfFb4459bfF96eb8B6BDe1A127F",
   "verifier": "0x9B9671dB83CfcB4508bF361942488C5cA2b1286D",
   "forkID": "12",
   "rollupCompatibilityID": "0",
   "genesis": "0xe3a7d8bae497945ba8ddc51c69564f60ad4c1a990b9c7bdbd27f7929bfa8f272",
   "description": "Type: Validium, Version: Banana , genesis: /ipfs/QmUXnRoPbUmZuEZCGyiHjEsoNcFVu3hLtSvhpnfBS2mAYU"
  },
  "predecessor": "0x0000000000000000000000000000000000000000000000000000000000000000",
  "salt": "0x0000000000000000000000000000000000000000000000000000000000000000",
  "delay": "864000"
 }
}