{
    "genesis": "0xe3a7d8bae497945ba8ddc51c69564f60ad4c1a990b9c7bdbd27f7929bfa8f272",
    "verifierAddress": "0x4AaBBA26EA9E7A7fbD052d17a167e6aE3F8eC7Be",
    "consensusContract": "PolygonValidiumStorageMigration",
    "scheduleData": "0x01d5062a0000000000000000000000005132a183e9f3cb7c848b0aac5ae0c4f0491b7ab2000000000000000000000000000000000000000000000000000000000000000000000000000000000000000000000000000000000000000000000000000000c08bae5e2a8aaf4501e263b917591e7fcf9b1d28c85962a8847a845aff916b50ad000000000000000000000000000000000000000000000000000000000000000000000000000000000000000000000000000000000000000000000000000d2f000000000000000000000000000000000000000000000000000000000000000164f34eb8eb00000000000000000000000010d296e8add0535be71639e5d1d1c30ae1c6bd4c0000000000000000000000004aabba26ea9e7a7fbd052d17a167e6ae3f8ec7be00000000000000000000000000000000000000000000000000000000000000080000000000000000000000000000000000000000000000000000000000000000e3a7d8bae497945ba8ddc51c69564f60ad4c1a990b9c7bdbd27f7929bfa8f27200000000000000000000000000000000000000000000000000000000000000c00000000000000000000000000000000000000000000000000000000000000061547970653a2056616c696469756d2c2056657273696f6e3a20696e636162657272792c2067656e657369733a202f697066732f516d55586e526f5062556d5a75455a43477969486a45736f4e6346567533684c74537668706e664253326d4159550000000000000000000000000000000000000000000000000000000000000000000000000000000000000000000000000000000000000000000000",
    "executeData": "0x134008d30000000000000000000000005132a183e9f3cb7c848b0aac5ae0c4f0491b7ab2000000000000000000000000000000000000000000000000000000000000000000000000000000000000000000000000000000000000000000000000000000a08bae5e2a8aaf4501e263b917591e7fcf9b1d28c85962a8847a845aff916b50ad00000000000000000000000000000000000000000000000000000000000000000000000000000000000000000000000000000000000000000000000000000164f34eb8eb00000000000000000000000010d296e8add0535be71639e5d1d1c30ae1c6bd4c0000000000000000000000004aabba26ea9e7a7fbd052d17a167e6ae3f8ec7be00000000000000000000000000000000000000000000000000000000000000080000000000000000000000000000000000000000000000000000000000000000e3a7d8bae497945ba8ddc51c69564f60ad4c1a990b9c7bdbd27f7929bfa8f27200000000000000000000000000000000000000000000000000000000000000c00000000000000000000000000000000000000000000000000000000000000061547970653a2056616c696469756d2c2056657273696f6e3a20696e636162657272792c2067656e657369733a202f697066732f516d55586e526f5062556d5a75455a43477969486a45736f4e6346567533684c74537668706e664253326d4159550000000000000000000000000000000000000000000000000000000000000000000000000000000000000000000000000000000000000000000000",
    "id": "0xd43e98454a4d7bef73956a5239de00d4858589ccf39f1d26a8c5bd9d1e5f671b",
    "decodedScheduleData": {
        "target": "0x5132A183E9F3CB7C848b0AAC5Ae0c4f0491B7aB2",
        "value": "0",
        "data": "0xf34eb8eb00000000000000000000000010d296e8add0535be71639e5d1d1c30ae1c6bd4c0000000000000000000000004aabba26ea9e7a7fbd052d17a167e6ae3f8ec7be00000000000000000000000000000000000000000000000000000000000000080000000000000000000000000000000000000000000000000000000000000000e3a7d8bae497945ba8ddc51c69564f60ad4c1a990b9c7bdbd27f7929bfa8f27200000000000000000000000000000000000000000000000000000000000000c00000000000000000000000000000000000000000000000000000000000000061547970653a2056616c696469756d2c2056657273696f6e3a20696e636162657272792c2067656e657369733a202f697066732f516d55586e526f5062556d5a75455a43477969486a45736f4e6346567533684c74537668706e664253326d41595500000000000000000000000000000000000000000000000000000000000000",
        "decodedData": {
            "consensusImplementation": "0x10D296e8aDd0535be71639E5D1d1c30ae1C6bD4C",
            "verifier": "0x4AaBBA26EA9E7A7fbD052d17a167e6aE3F8eC7Be",
            "forkID": "8",
            "rollupCompatibilityID": "0",
            "genesis": "0xe3a7d8bae497945ba8ddc51c69564f60ad4c1a990b9c7bdbd27f7929bfa8f272",
            "description": "Type: Validium, Version: incaberry, genesis: /ipfs/QmUXnRoPbUmZuEZCGyiHjEsoNcFVu3hLtSvhpnfBS2mAYU"
        },
        "predecessor": "0x8bae5e2a8aaf4501e263b917591e7fcf9b1d28c85962a8847a845aff916b50ad",
        "salt": "0x0000000000000000000000000000000000000000000000000000000000000000",
        "delay": "864000"
    }
}
