{
    "scheduleData": "0x01d5062a0000000000000000000000005132a183e9f3cb7c848b0aac5ae0c4f0491b7ab2000000000000000000000000000000000000000000000000000000000000000000000000000000000000000000000000000000000000000000000000000000c00000000000000000000000000000000000000000000000000000000000000000000000000000000000000000000000000000000000000000000000000000000000000000000000000000000000000000000000000000000000000000000d2f0000000000000000000000000000000000000000000000000000000000000000a4c4c928c20000000000000000000000001e163594e13030244dcaf4cdfc2cd0ba3206da800000000000000000000000000000000000000000000000000000000000000003000000000000000000000000000000000000000000000000000000000000006000000000000000000000000000000000000000000000000000000000000000041c8b93700000000000000000000000000000000000000000000000000000000000000000000000000000000000000000000000000000000000000000",
    "executeData": "0x134008d30000000000000000000000005132a183e9f3cb7c848b0aac5ae0c4f0491b7ab2000000000000000000000000000000000000000000000000000000000000000000000000000000000000000000000000000000000000000000000000000000a00000000000000000000000000000000000000000000000000000000000000000000000000000000000000000000000000000000000000000000000000000000000000000000000000000000000000000000000000000000000000000000000a4c4c928c20000000000000000000000001e163594e13030244dcaf4cdfc2cd0ba3206da800000000000000000000000000000000000000000000000000000000000000003000000000000000000000000000000000000000000000000000000000000006000000000000000000000000000000000000000000000000000000000000000041c8b93700000000000000000000000000000000000000000000000000000000000000000000000000000000000000000000000000000000000000000",
    "decodedScheduleData": {
        "target": "0x5132A183E9F3CB7C848b0AAC5Ae0c4f0491B7aB2",
        "value": "0",
        "data": "0xc4c928c20000000000000000000000001e163594e13030244dcaf4cdfc2cd0ba3206da800000000000000000000000000000000000000000000000000000000000000003000000000000000000000000000000000000000000000000000000000000006000000000000000000000000000000000000000000000000000000000000000041c8b937000000000000000000000000000000000000000000000000000000000",
        "decodedData": {
            "rollupContract": "0x1E163594e13030244DCAf4cDfC2cd0ba3206DA80",
            "newRollupTypeID": "3",
            "upgradeData": "0x1c8b9370"
        },
        "predecessor": "0x0000000000000000000000000000000000000000000000000000000000000000",
        "salt": "0x0000000000000000000000000000000000000000000000000000000000000000",
        "delay": "864000"
    }
}
