[
  {
    "txs": {
      "from": "0x617b3a3528F9cDd6630fd3301B9c8911F7Bf063D",
      "to": "0x4d5Cf5032B2a844602278b01199ED191A86c93ff",
      "nonce": 0,
      "value": "0.1",
      "gasLimit": 100000,
      "gasPrice": "1",
      "chainId": 1001,
      "rawTx": "0xf86d80843b9aca00830186a0944d5cf5032b2a844602278b01199ed191a86c93ff88016345785d8a0000808207f5a01186622d03b6b8da7cf111d1ccba5bb185c56deae6a322cebc6dda0556f3cb979f910c26408b64b51c5da36ba2f38ef55ba1cee719d5a6c01225968799907432",
      "reason": ""
    },
    "receipt": {
      "transactionHash": "0x0cc3dd49b941271b19df83ba6733bed4023fb82c28d40e6ef863ca589d4a933a",
      "transactionIndex": 0,
      "blockHash": "0x0000000000000000000000000000000000000000000000000000000000000123",
      "blockNumber": 0,
      "from": "0x617b3a3528F9cDd6630fd3301B9c8911F7Bf063D",
      "to": "0x4d5Cf5032B2a844602278b01199ED191A86c93ff",
      "cumulativeGasUsed": 21000,
      "gasUsed": 21000,
      "contractAddress": null,
      "logs": 0,
      "logsBloom": 0,
      "status": 1
    }
  },
  {
    "txs": {
      "from": "0x617b3a3528F9cDd6630fd3301B9c8911F7Bf063D",
      "to": "0x4d5Cf5032B2a844602278b01199ED191A86c93ff",
      "nonce": 0,
      "value": "0.1",
      "gasLimit": 100000,
      "gasPrice": "1",
      "chainId": 1001,
      "rawTx": "0xf86d80843b9aca00830186a0944d5cf5032b2a844602278b01199ed191a86c93ff88016345785d8a0000808207f5a01186622d03b6b8da7cf111d1ccba5bb185c56deae6a322cebc6dda0556f3cb979f910c26408b64b51c5da36ba2f38ef55ba1cee719d5a6c01225968799907432",
      "reason": ""
    },
    "receipt": {
      "transactionHash": "0x0cc3dd49b941271b19df83ba6733bed4023fb82c28d40e6ef863ca589d4a933a",
      "transactionIndex": 1,
      "blockHash": "0x0000000000000000000000000000000000000000000000000000000000000123",
      "blockNumber": 0,
      "from": "0x617b3a3528F9cDd6630fd3301B9c8911F7Bf063D",
      "to": "0x4d5Cf5032B2a844602278b01199ED191A86c93ff",
      "cumulativeGasUsed": 42000,
      "gasUsed": 21000,
      "contractAddress": null,
      "logs": 0,
      "logsBloom": 0,
      "status": 1
    }
  },
  {
    "txs": {
      "from": "0xeB17ce701E9D92724AA2ABAdA7E4B28830597Dd9",
      "to": "0x187Bd40226A7073b49163b1f6c2b73d8F2aa8478",
      "nonce": 0,
      "value": "1000",
      "gasLimit": 100000,
      "gasPrice": "1",
      "chainId": 1001,
      "rawTx": "0xf86f80843b9aca00830186a094187bd40226a7073b49163b1f6c2b73d8f2aa8478893635c9adc5dea00000808207f5a04c4fbe884ee8912360f4d00199fd189f11b27fa25eca1b9dcfd3ea686e88042ea0113432240c9e7be8de1e8fc0894b68ff4d37528d820814527b5fa2bd034ef38f",
      "reason": "TX INVALID: Not enough funds to pay total transaction cost"
    },
    "receipt": {
      "transactionHash": "0xa3b1f82d393598452c2ae10037ba6685d60325b73e81ad2c2d4a50fdf2c10ec5",
      "transactionIndex": 2,
      "blockHash": "0x0000000000000000000000000000000000000000000000000000000000000123",
      "blockNumber": 0,
      "from": "0xeB17ce701E9D92724AA2ABAdA7E4B28830597Dd9",
      "to": "0x187Bd40226A7073b49163b1f6c2b73d8F2aa8478",
      "cumulativeGasUsed": 63000,
      "gasUsed": 21000,
      "contractAddress": null,
      "logs": 0,
      "logsBloom": 0,
      "status": 1
    }
  },
  {
    "txs": {
      "from": "0xeB17ce701E9D92724AA2ABAdA7E4B28830597Dd9",
      "to": "0x187Bd40226A7073b49163b1f6c2b73d8F2aa8478",
      "nonce": 0,
      "value": "1",
      "gasLimit": 100000,
      "gasPrice": "1",
      "chainId": 1000,
      "rawTx": "0xf86e80843b9aca00830186a094187bd40226a7073b49163b1f6c2b73d8f2aa8478880de0b6b3a7640000808207f4a074ecb6abb3d84c322a4905c60199b8f422b79b940e8a853d580869268009ae31a023fb6caa5b3afc410b79d9b68bf851df1fd46fd6923cc481b3e273aeb92ce67d",
      "reason": ""
    },
    "receipt": {
      "transactionHash": "0x757a5aa97e795d4742a9b8cd7c8f4b203c380d361635a72f94fd1d0d44544bac",
      "transactionIndex": 3,
      "blockHash": "0x0000000000000000000000000000000000000000000000000000000000000123",
      "blockNumber": 0,
      "from": "0xeB17ce701E9D92724AA2ABAdA7E4B28830597Dd9",
      "to": "0x187Bd40226A7073b49163b1f6c2b73d8F2aa8478",
      "cumulativeGasUsed": 84000,
      "gasUsed": 21000,
      "contractAddress": null,
      "logs": 0,
      "logsBloom": 0,
      "status": 1
    }
  },
  {
    "txs": {
      "from": "0xeB17ce701E9D92724AA2ABAdA7E4B28830597Dd9",
      "to": "0xabCcEd19d7f290B84608feC510bEe872CC8F5112",
      "nonce": 0,
      "value": "1",
      "gasLimit": 100000,
      "gasPrice": "1",
      "chainId": 1001,
      "rawTx": "0xf86e80843b9aca00830186a094abcced19d7f290b84608fec510bee872cc8f5112880de0b6b3a7640000808207f5a0980717290b2314a735dc00db207c20d5a6461f73761c2022986fd78efa7e774da057de08eada05ec67eb78cceaa7be257cb12b5449aa0d7347dca655f94375c967",
      "reason": "TX INVALID: Invalid nonce"
    },
    "receipt": {
      "transactionHash": "0x8e566f25fd0a407eb53272642dc0e35b6b69203c2ad40f1f6ca55d11e251dd8b",
      "transactionIndex": 4,
      "blockHash": "0x0000000000000000000000000000000000000000000000000000000000000123",
      "blockNumber": 0,
      "from": "0xeB17ce701E9D92724AA2ABAdA7E4B28830597Dd9",
      "to": "0xabCcEd19d7f290B84608feC510bEe872CC8F5112",
      "cumulativeGasUsed": 105000,
      "gasUsed": 21000,
      "contractAddress": null,
      "logs": 0,
      "logsBloom": 0,
      "status": 1
    }
  },
  {
    "txs": {
      "from": "0xeB17ce701E9D92724AA2ABAdA7E4B28830597Dd9",
      "to": "0xabCcEd19d7f290B84608feC510bEe872CC8F5112",
      "nonce": 0,
      "value": "1",
      "gasLimit": 100000,
      "gasPrice": "1",
      "chainId": 0,
      "rawTx": "0xf86c80843b9aca00830186a094abcced19d7f290b84608fec510bee872cc8f5112880de0b6b3a7640000801ba02c92035bc11227e9e94ba066a6d77a65c43d29dfb4a855c9464e1b60fabd6334a07171c6dc84816ffcf025040cd6193ecef3928a0c4e4964ddba320826b76c725d",
      "reason": "TX INVALID: Chain ID does not match"
    },
    "receipt": {
      "transactionHash": "0x0269c52cc35386250bbab5fffcda916bbe8f0218b37897827158e6c746891cfd",
      "transactionIndex": 5,
      "blockHash": "0x0000000000000000000000000000000000000000000000000000000000000123",
      "blockNumber": 0,
      "from": "0xeB17ce701E9D92724AA2ABAdA7E4B28830597Dd9",
      "to": "0xabCcEd19d7f290B84608feC510bEe872CC8F5112",
      "cumulativeGasUsed": 126000,
      "gasUsed": 21000,
      "contractAddress": null,
      "logs": 0,
      "logsBloom": 0,
      "status": 1
    }
  },
  {
    "txs": {
      "from": "0x617b3a3528F9cDd6630fd3301B9c8911F7Bf063D",
      "to": "0x4d5Cf5032B2a844602278b01199ED191A86c93ff",
      "nonce": 0,
      "value": "10000",
      "gasLimit": 100000,
      "gasPrice": "1",
      "chainId": 1001,
      "rawTx": "0xf87080843b9aca00830186a0944d5cf5032b2a844602278b01199ed191a86c93ff8a021e19e0c9bab2400000808207f5a0510a8a10721e65bf2913889751f3b32de1cb4733a667e06b708f122965da598ea075ca7d27cb4c3846490b4c446605d0120b0720b70dfe5a07f865a161c3726322",
      "reason": "TX INVALID: Not enough funds to pay total transaction cost"
    },
    "receipt": {
      "transactionHash": "0xb905f11484cba1aeb1ab0e53a785c2693afb069243e99a76aa02fe25e3f2eed4",
      "transactionIndex": 6,
      "blockHash": "0x0000000000000000000000000000000000000000000000000000000000000123",
      "blockNumber": 0,
      "from": "0x617b3a3528F9cDd6630fd3301B9c8911F7Bf063D",
      "to": "0x4d5Cf5032B2a844602278b01199ED191A86c93ff",
      "cumulativeGasUsed": 147000,
      "gasUsed": 21000,
      "contractAddress": null,
      "logs": 0,
      "logsBloom": 0,
      "status": 1
    }
  },
  {
    "txs": {
      "from": "0x617b3a3528F9cDd6630fd3301B9c8911F7Bf063D",
      "to": "0x4d5Cf5032B2a844602278b01199ED191A86c93ff",
      "nonce": 0,
      "value": "0.1",
      "gasLimit": 100000,
      "gasPrice": "1",
      "chainId": 401,
      "rawTx": "0xf86e80843b9aca00830186a0944d5cf5032b2a844602278b01199ed191a86c93ff88016345785d8a000080820346a06e209c61ca92c2b980d6197e7ac9ccc3f547bf13be6455dfe682aa5dda9655efa016819a7edcc3fefec81ca97c7a6f3d10ec774440e409adbba693ce8b698d41f1",
      "reason": "TX INVALID: Chain ID does not match"
    },
    "receipt": {
      "transactionHash": "0xea6144f425a45533474e3334fc9d2a607277624a96a113ef2e0d8bf9f0ece328",
      "transactionIndex": 7,
      "blockHash": "0x0000000000000000000000000000000000000000000000000000000000000123",
      "blockNumber": 0,
      "from": "0x617b3a3528F9cDd6630fd3301B9c8911F7Bf063D",
      "to": "0x4d5Cf5032B2a844602278b01199ED191A86c93ff",
      "cumulativeGasUsed": 168000,
      "gasUsed": 21000,
      "contractAddress": null,
      "logs": 0,
      "logsBloom": 0,
      "status": 1
    }
  },
  {
    "txs": {
      "from": "0x617b3a3528F9cDd6630fd3301B9c8911F7Bf063D",
      "to": "0x4d5Cf5032B2a844602278b01199ED191A86c93ff",
      "nonce": 0,
      "value": "100",
      "gasLimit": 100000,
      "gasPrice": "1",
      "chainId": 1001,
      "rawTx": "0xf86f80843b9aca00830186a0944d5cf5032b2a844602278b01199ed191a86c93ff89056bc75e2d63100000808207f5a0fe1e96b35c836fbebac887681150c5fc9fdae862d747aaaf8c30373c0becf769a01ff0c900aaaac6d1565a603f69b5a45f222ed205f0a36fdc6e4e4c5a7b88d45b",
      "reason": "TX INVALID: Not enough funds to pay total transaction cost"
    },
    "receipt": {
      "transactionHash": "0xe06db3db8234a75016252c6b43e6ad4530a498df810e2a5bb8e115ec25343b8b",
      "transactionIndex": 8,
      "blockHash": "0x0000000000000000000000000000000000000000000000000000000000000123",
      "blockNumber": 0,
      "from": "0x617b3a3528F9cDd6630fd3301B9c8911F7Bf063D",
      "to": "0x4d5Cf5032B2a844602278b01199ED191A86c93ff",
      "cumulativeGasUsed": 189000,
      "gasUsed": 21000,
      "contractAddress": null,
      "logs": 0,
      "logsBloom": 0,
      "status": 1
    }
  },
  {
    "txs": {
      "from": "0x617b3a3528F9cDd6630fd3301B9c8911F7Bf063D",
      "to": "0x617b3a3528F9cDd6630fd3301B9c8911F7Bf063D",
      "nonce": 0,
      "value": "0.1",
      "gasLimit": 100000,
      "gasPrice": "1",
      "chainId": 1001,
      "rawTx": "0xf86e80843b9aca00830186a094617b3a3528f9cdd6630fd3301b9c8911f7bf063d88016345785d8a0000808207f6a014b2304ca08457f37c4e81284398aa9c511875e47b37b1e6877a26c53c0e7a1ca07f2ed42e23e503c446213de2ce077e5cfdc58f0a672dfc0a5d0aa7c0202098c3",
      "reason": ""
    },
    "receipt": {
      "transactionHash": "0x39b4d21d30501daa3725e7058db487d63503d3c94588ca5fc227e832feabc9cb",
      "transactionIndex": 9,
      "blockHash": "0x0000000000000000000000000000000000000000000000000000000000000123",
      "blockNumber": 0,
      "from": "0x617b3a3528F9cDd6630fd3301B9c8911F7Bf063D",
      "to": "0x617b3a3528F9cDd6630fd3301B9c8911F7Bf063D",
      "cumulativeGasUsed": 210000,
      "gasUsed": 21000,
      "contractAddress": null,
      "logs": 0,
      "logsBloom": 0,
      "status": 1
    }
  },
  {
    "txs": {
      "from": "0x617b3a3528F9cDd6630fd3301B9c8911F7Bf063D",
      "to": "0x4d5Cf5032B2a844602278b01199ED191A86c93ff",
      "nonce": 0,
      "value": "100",
      "gasLimit": 100000,
      "gasPrice": "1",
      "chainId": 1001,
      "rawTx": "0xf86f80843b9aca00830186a0944d5cf5032b2a844602278b01199ed191a86c93ff89056bc75e2d63100000808207f5a0fe1e96b35c836fbebac887681150c5fc9fdae862d747aaaf8c30373c0becf769a01ff0c900aaaac6d1565a603f69b5a45f222ed205f0a36fdc6e4e4c5a7b88d45b",
      "reason": "TX INVALID: Not enough funds to pay total transaction cost"
    },
    "receipt": {
      "transactionHash": "0xe06db3db8234a75016252c6b43e6ad4530a498df810e2a5bb8e115ec25343b8b",
      "transactionIndex": 10,
      "blockHash": "0x0000000000000000000000000000000000000000000000000000000000000123",
      "blockNumber": 0,
      "from": "0x617b3a3528F9cDd6630fd3301B9c8911F7Bf063D",
      "to": "0x4d5Cf5032B2a844602278b01199ED191A86c93ff",
      "cumulativeGasUsed": 231000,
      "gasUsed": 21000,
      "contractAddress": null,
      "logs": 0,
      "logsBloom": 0,
      "status": 1
    }
  },
  {
    "txs": {
      "from": "0x617b3a3528F9cDd6630fd3301B9c8911F7Bf063D",
      "to": "0x4d5Cf5032B2a844602278b01199ED191A86c93ff",
      "nonce": 0,
      "value": "0.1",
      "gasLimit": 100000,
      "gasPrice": "1",
      "chainId": 1001,
      "rawTx": "0xf86d80843b9aca00830186a0944d5cf5032b2a844602278b01199ed191a86c93ff88016345785d8a0000808207f5a01186622d03b6b8da7cf111d1ccba5bb185c56deae6a322cebc6dda0556f3cb979f910c26408b64b51c5da36ba2f38ef55ba1cee719d5a6c01225968799907432",
      "reason": ""
    },
    "receipt": {
      "transactionHash": "0x0cc3dd49b941271b19df83ba6733bed4023fb82c28d40e6ef863ca589d4a933a",
      "transactionIndex": 11,
      "blockHash": "0x0000000000000000000000000000000000000000000000000000000000000123",
      "blockNumber": 0,
      "from": "0x617b3a3528F9cDd6630fd3301B9c8911F7Bf063D",
      "to": "0x4d5Cf5032B2a844602278b01199ED191A86c93ff",
      "cumulativeGasUsed": 252000,
      "gasUsed": 21000,
      "contractAddress": null,
      "logs": 0,
      "logsBloom": 0,
      "status": 1
    }
  },
  {
    "txs": {
      "from": "0x617b3a3528F9cDd6630fd3301B9c8911F7Bf063D",
      "to": "0x4d5Cf5032B2a844602278b01199ED191A86c93ff",
      "nonce": 0,
      "value": "1",
      "gasLimit": 100000,
      "gasPrice": "1",
      "chainId": 1001,
      "rawTx": "0xf86e80843b9aca00830186a0944d5cf5032b2a844602278b01199ed191a86c93ff880de0b6b3a7640000808207f6a0abf2354a778c3dace42daafd85b0587941170288f5d150621453bb490cbbb897a04d0251dec50bf299922edde433982445f1245e85a61232edc2847bd571250b52",
      "reason": "TX INVALID: Invalid nonce"
    },
    "receipt": {
      "transactionHash": "0x14213ac70bed07e3b68cd0328c04817ba72646cbe6130f7931c27a0b0ca83884",
      "transactionIndex": 12,
      "blockHash": "0x0000000000000000000000000000000000000000000000000000000000000123",
      "blockNumber": 0,
      "from": "0x617b3a3528F9cDd6630fd3301B9c8911F7Bf063D",
      "to": "0x4d5Cf5032B2a844602278b01199ED191A86c93ff",
      "cumulativeGasUsed": 273000,
      "gasUsed": 21000,
      "contractAddress": null,
      "logs": 0,
      "logsBloom": 0,
      "status": 1
    }
  },
  {
    "txs": {
      "from": "0x617b3a3528F9cDd6630fd3301B9c8911F7Bf063D",
      "to": "0x4d5Cf5032B2a844602278b01199ED191A86c93ff",
      "nonce": 0,
      "value": "1",
      "gasLimit": 100000,
      "gasPrice": "1",
      "chainId": 0,
      "rawTx": "0xf86c80843b9aca00830186a0944d5cf5032b2a844602278b01199ed191a86c93ff880de0b6b3a7640000801ba077f76b76aca6161db28545aa742536370e4f57f9a71651688631a423abcbe04aa0131474e130abe8bcc9ef39a44a877eb64b2d43132cb0907abe547aa605b641b8",
      "reason": "TX INVALID: Chain ID does not match"
    },
    "receipt": {
      "transactionHash": "0x9e31243c81d3341f505b8416b2cded3eef50b1d4aca7e8a1e7a29bbe00dd20b1",
      "transactionIndex": 13,
      "blockHash": "0x0000000000000000000000000000000000000000000000000000000000000123",
      "blockNumber": 0,
      "from": "0x617b3a3528F9cDd6630fd3301B9c8911F7Bf063D",
      "to": "0x4d5Cf5032B2a844602278b01199ED191A86c93ff",
      "cumulativeGasUsed": 294000,
      "gasUsed": 21000,
      "contractAddress": null,
      "logs": 0,
      "logsBloom": 0,
      "status": 1
    }
  }
]