{
    "genesis": "0xe3a7d8bae497945ba8ddc51c69564f60ad4c1a990b9c7bdbd27f7929bfa8f272",
    "verifierAddress": "0x1C3A3da552b8662CD69538356b1E7c2E9CC1EBD8",
    "consensusContract": "PolygonValidiumEtrog",
    "scheduleData": "0x01d5062a0000000000000000000000005132a183e9f3cb7c848b0aac5ae0c4f0491b7ab2000000000000000000000000000000000000000000000000000000000000000000000000000000000000000000000000000000000000000000000000000000c00000000000000000000000000000000000000000000000000000000000000000000000000000000000000000000000000000000000000000000000000000000000000000000000000000000000000000000000000000000000000000000d2f000000000000000000000000000000000000000000000000000000000000000144f34eb8eb0000000000000000000000009cf80f7eb1c76ec5ae7a88b417e373449b73ac300000000000000000000000001c3a3da552b8662cd69538356b1e7c2e9cc1ebd800000000000000000000000000000000000000000000000000000000000000070000000000000000000000000000000000000000000000000000000000000000e3a7d8bae497945ba8ddc51c69564f60ad4c1a990b9c7bdbd27f7929bfa8f27200000000000000000000000000000000000000000000000000000000000000c0000000000000000000000000000000000000000000000000000000000000005d547970653a2056616c696469756d2c2056657273696f6e3a206574726f672c2067656e657369733a202f697066732f516d55586e526f5062556d5a75455a43477969486a45736f4e6346567533684c74537668706e664253326d41595500000000000000000000000000000000000000000000000000000000000000",
    "executeData": "0x134008d30000000000000000000000005132a183e9f3cb7c848b0aac5ae0c4f0491b7ab2000000000000000000000000000000000000000000000000000000000000000000000000000000000000000000000000000000000000000000000000000000a0000000000000000000000000000000000000000000000000000000000000000000000000000000000000000000000000000000000000000000000000000000000000000000000000000000000000000000000000000000000000000000000144f34eb8eb0000000000000000000000009cf80f7eb1c76ec5ae7a88b417e373449b73ac300000000000000000000000001c3a3da552b8662cd69538356b1e7c2e9cc1ebd800000000000000000000000000000000000000000000000000000000000000070000000000000000000000000000000000000000000000000000000000000000e3a7d8bae497945ba8ddc51c69564f60ad4c1a990b9c7bdbd27f7929bfa8f27200000000000000000000000000000000000000000000000000000000000000c0000000000000000000000000000000000000000000000000000000000000005d547970653a2056616c696469756d2c2056657273696f6e3a206574726f672c2067656e657369733a202f697066732f516d55586e526f5062556d5a75455a43477969486a45736f4e6346567533684c74537668706e664253326d41595500000000000000000000000000000000000000000000000000000000000000",
    "decodedScheduleData": {
        "target": "0x5132A183E9F3CB7C848b0AAC5Ae0c4f0491B7aB2",
        "value": "0",
        "data": "0xf34eb8eb0000000000000000000000009cf80f7eb1c76ec5ae7a88b417e373449b73ac300000000000000000000000001c3a3da552b8662cd69538356b1e7c2e9cc1ebd800000000000000000000000000000000000000000000000000000000000000070000000000000000000000000000000000000000000000000000000000000000e3a7d8bae497945ba8ddc51c69564f60ad4c1a990b9c7bdbd27f7929bfa8f27200000000000000000000000000000000000000000000000000000000000000c0000000000000000000000000000000000000000000000000000000000000005d547970653a2056616c696469756d2c2056657273696f6e3a206574726f672c2067656e657369733a202f697066732f516d55586e526f5062556d5a75455a43477969486a45736f4e6346567533684c74537668706e664253326d415955000000",
        "decodedData": {
            "consensusImplementation": "0x9cf80f7eB1C76ec5AE7A88b417e373449b73ac30",
            "verifier": "0x1C3A3da552b8662CD69538356b1E7c2E9CC1EBD8",
            "forkID": "7",
            "rollupCompatibilityID": "0",
            "genesis": "0xe3a7d8bae497945ba8ddc51c69564f60ad4c1a990b9c7bdbd27f7929bfa8f272",
            "description": "Type: Validium, Version: etrog, genesis: /ipfs/QmUXnRoPbUmZuEZCGyiHjEsoNcFVu3hLtSvhpnfBS2mAYU"
        },
        "predecessor": "0x0000000000000000000000000000000000000000000000000000000000000000",
        "salt": "0x0000000000000000000000000000000000000000000000000000000000000000",
        "delay": "864000"
    }
}
