{
 "genesis": "0xe3a7d8bae497945ba8ddc51c69564f60ad4c1a990b9c7bdbd27f7929bfa8f272",
 "verifierAddress": "0x9B9671dB83CfcB4508bF361942488C5cA2b1286D",
 "consensusContract": "PolygonZkEVMEtrog",
 "scheduleData": "0x01d5062a0000000000000000000000005132a183e9f3cb7c848b0aac5ae0c4f0491b7ab2000000000000000000000000000000000000000000000000000000000000000000000000000000000000000000000000000000000000000000000000000000c00000000000000000000000000000000000000000000000000000000000000000000000000000000000000000000000000000000000000000000000000000000000000000000000000000000000000000000000000000000000000000000d2f000000000000000000000000000000000000000000000000000000000000000144f34eb8eb0000000000000000000000007253f329302b1b5e774ac641ea3743e9e3244f2e0000000000000000000000009b9671db83cfcb4508bf361942488c5ca2b1286d000000000000000000000000000000000000000000000000000000000000000c0000000000000000000000000000000000000000000000000000000000000000e3a7d8bae497945ba8ddc51c69564f60ad4c1a990b9c7bdbd27f7929bfa8f27200000000000000000000000000000000000000000000000000000000000000c0000000000000000000000000000000000000000000000000000000000000005c547970653a207a6b45564d2c2056657273696f6e3a2042616e616e61202c2067656e657369733a202f697066732f516d55586e526f5062556d5a75455a43477969486a45736f4e6346567533684c74537668706e664253326d4159550000000000000000000000000000000000000000000000000000000000000000",
 "executeData": "0x134008d30000000000000000000000005132a183e9f3cb7c848b0aac5ae0c4f0491b7ab2000000000000000000000000000000000000000000000000000000000000000000000000000000000000000000000000000000000000000000000000000000a0000000000000000000000000000000000000000000000000000000000000000000000000000000000000000000000000000000000000000000000000000000000000000000000000000000000000000000000000000000000000000000000144f34eb8eb0000000000000000000000007253f329302b1b5e774ac641ea3743e9e3244f2e0000000000000000000000009b9671db83cfcb4508bf361942488c5ca2b1286d000000000000000000000000000000000000000000000000000000000000000c0000000000000000000000000000000000000000000000000000000000000000e3a7d8bae497945ba8ddc51c69564f60ad4c1a990b9c7bdbd27f7929bfa8f27200000000000000000000000000000000000000000000000000000000000000c0000000000000000000000000000000000000000000000000000000000000005c547970653a207a6b45564d2c2056657273696f6e3a2042616e616e61202c2067656e657369733a202f697066732f516d55586e526f5062556d5a75455a43477969486a45736f4e6346567533684c74537668706e664253326d4159550000000000000000000000000000000000000000000000000000000000000000",
 "id": "0x2e7967087ebb99a28e2b184b1758268579a9aa83a6c25c3e871bba70720f614b",
 "decodedScheduleData": {
  "target": "0x5132A183E9F3CB7C848b0AAC5Ae0c4f0491B7aB2",
  "value": "0",
  "data": "0xf34eb8eb0000000000000000000000007253f329302b1b5e774ac641ea3743e9e3244f2e0000000000000000000000009b9671db83cfcb4508bf361942488c5ca2b1286d000000000000000000000000000000000000000000000000000000000000000c0000000000000000000000000000000000000000000000000000000000000000e3a7d8bae497945ba8ddc51c69564f60ad4c1a990b9c7bdbd27f7929bfa8f27200000000000000000000000000000000000000000000000000000000000000c0000000000000000000000000000000000000000000000000000000000000005c547970653a207a6b45564d2c2056657273696f6e3a2042616e616e61202c2067656e657369733a202f697066732f516d55586e526f5062556d5a75455a43477969486a45736f4e6346567533684c74537668706e664253326d41595500000000",
  "decodedData": {
   "consensusImplementation": "0x7253F329302b1b5E774Ac641EA3743E9E3244f2E",
   "verifier": "0x9B9671dB83CfcB4508bF361942488C5cA2b1286D",
   "forkID": "12",
   "rollupCompatibilityID": "0",
   "genesis": "0xe3a7d8bae497945ba8ddc51c69564f60ad4c1a990b9c7bdbd27f7929bfa8f272",
   "description": "Type: zkEVM, Version: Banana , genesis: /ipfs/QmUXnRoPbUmZuEZCGyiHjEsoNcFVu3hLtSvhpnfBS2mAYU"
  },
  "predecessor": "0x0000000000000000000000000000000000000000000000000000000000000000",
  "salt": "0x0000000000000000000000000000000000000000000000000000000000000000",
  "delay": "864000"
 }
}