{
    "genesis": "0xe3a7d8bae497945ba8ddc51c69564f60ad4c1a990b9c7bdbd27f7929bfa8f272",
    "verifierAddress": "0x0775e11309d75aA6b0967917fB0213C5673eDf81",
    "consensusContract": "PolygonValidiumStorageMigration",
    "scheduleData": "0x01d5062a0000000000000000000000005132a183e9f3cb7c848b0aac5ae0c4f0491b7ab2000000000000000000000000000000000000000000000000000000000000000000000000000000000000000000000000000000000000000000000000000000c00000000000000000000000000000000000000000000000000000000000000000000000000000000000000000000000000000000000000000000000000000000000000000000000000000000000000000000000000000000000000000000000000000000000000000000000000000000000000000000000000000000000000164f34eb8eb00000000000000000000000010d296e8add0535be71639e5d1d1c30ae1c6bd4c0000000000000000000000000775e11309d75aa6b0967917fb0213c5673edf8100000000000000000000000000000000000000000000000000000000000000090000000000000000000000000000000000000000000000000000000000000000e3a7d8bae497945ba8ddc51c69564f60ad4c1a990b9c7bdbd27f7929bfa8f27200000000000000000000000000000000000000000000000000000000000000c00000000000000000000000000000000000000000000000000000000000000063547970653a2056616c696469756d2c2056657273696f6e3a20656c64656c6265727279322c2067656e657369733a202f697066732f516d55586e526f5062556d5a75455a43477969486a45736f4e6346567533684c74537668706e664253326d415955000000000000000000000000000000000000000000000000000000000000000000000000000000000000000000000000000000000000000000",
    "executeData": "0x134008d30000000000000000000000005132a183e9f3cb7c848b0aac5ae0c4f0491b7ab2000000000000000000000000000000000000000000000000000000000000000000000000000000000000000000000000000000000000000000000000000000a0000000000000000000000000000000000000000000000000000000000000000000000000000000000000000000000000000000000000000000000000000000000000000000000000000000000000000000000000000000000000000000000164f34eb8eb00000000000000000000000010d296e8add0535be71639e5d1d1c30ae1c6bd4c0000000000000000000000000775e11309d75aa6b0967917fb0213c5673edf8100000000000000000000000000000000000000000000000000000000000000090000000000000000000000000000000000000000000000000000000000000000e3a7d8bae497945ba8ddc51c69564f60ad4c1a990b9c7bdbd27f7929bfa8f27200000000000000000000000000000000000000000000000000000000000000c00000000000000000000000000000000000000000000000000000000000000063547970653a2056616c696469756d2c2056657273696f6e3a20656c64656c6265727279322c2067656e657369733a202f697066732f516d55586e526f5062556d5a75455a43477969486a45736f4e6346567533684c74537668706e664253326d415955000000000000000000000000000000000000000000000000000000000000000000000000000000000000000000000000000000000000000000",
    "id": "0xdecad137d29f44776cbe1de5721dd879cbc65f189fa8f4f93451c6621fa31363",
    "decodedScheduleData": {
        "target": "0x5132A183E9F3CB7C848b0AAC5Ae0c4f0491B7aB2",
        "value": "0",
        "data": "0xf34eb8eb00000000000000000000000010d296e8add0535be71639e5d1d1c30ae1c6bd4c0000000000000000000000000775e11309d75aa6b0967917fb0213c5673edf8100000000000000000000000000000000000000000000000000000000000000090000000000000000000000000000000000000000000000000000000000000000e3a7d8bae497945ba8ddc51c69564f60ad4c1a990b9c7bdbd27f7929bfa8f27200000000000000000000000000000000000000000000000000000000000000c00000000000000000000000000000000000000000000000000000000000000063547970653a2056616c696469756d2c2056657273696f6e3a20656c64656c6265727279322c2067656e657369733a202f697066732f516d55586e526f5062556d5a75455a43477969486a45736f4e6346567533684c74537668706e664253326d4159550000000000000000000000000000000000000000000000000000000000",
        "decodedData": {
            "consensusImplementation": "0x10D296e8aDd0535be71639E5D1d1c30ae1C6bD4C",
            "verifier": "0x0775e11309d75aA6b0967917fB0213C5673eDf81",
            "forkID": "9",
            "rollupCompatibilityID": "0",
            "genesis": "0xe3a7d8bae497945ba8ddc51c69564f60ad4c1a990b9c7bdbd27f7929bfa8f272",
            "description": "Type: Validium, Version: eldelberry2, genesis: /ipfs/QmUXnRoPbUmZuEZCGyiHjEsoNcFVu3hLtSvhpnfBS2mAYU"
        },
        "predecessor": "0x0000000000000000000000000000000000000000000000000000000000000000",
        "salt": "0x0000000000000000000000000000000000000000000000000000000000000000",
        "delay": "0"
    }
}
