{
    "scheduleData": "0x01d5062a0000000000000000000000005132a183e9f3cb7c848b0aac5ae0c4f0491b7ab2000000000000000000000000000000000000000000000000000000000000000000000000000000000000000000000000000000000000000000000000000000c000000000000000000000000000000000000000000000000000000000000000000000000000000000000000000000000000000000000000000000000000000000000000000000000000000000000000000000000000000000000000000000000000000000000000000000000000000000000000000000000000000000000000442f2ff15d66156603fe29d13f97c6f3e3dff4ef71919f9aa61c555be0182d954e94221aac000000000000000000000000242dae44f5d8fb54b198d03a94da45b5a4413e2100000000000000000000000000000000000000000000000000000000",
    "executeData": "0x134008d30000000000000000000000005132a183e9f3cb7c848b0aac5ae0c4f0491b7ab2000000000000000000000000000000000000000000000000000000000000000000000000000000000000000000000000000000000000000000000000000000a00000000000000000000000000000000000000000000000000000000000000000000000000000000000000000000000000000000000000000000000000000000000000000000000000000000000000000000000000000000000000000000000442f2ff15d66156603fe29d13f97c6f3e3dff4ef71919f9aa61c555be0182d954e94221aac000000000000000000000000242dae44f5d8fb54b198d03a94da45b5a4413e2100000000000000000000000000000000000000000000000000000000",
    "decodedScheduleData": {
        "target": "0x5132A183E9F3CB7C848b0AAC5Ae0c4f0491B7aB2",
        "value": "0",
        "data": "0x2f2ff15d66156603fe29d13f97c6f3e3dff4ef71919f9aa61c555be0182d954e94221aac000000000000000000000000242dae44f5d8fb54b198d03a94da45b5a4413e21",
        "decodedData": {
            "role": "0x66156603fe29d13f97c6f3e3dff4ef71919f9aa61c555be0182d954e94221aac",
            "account": "0x242daE44F5d8fb54B198D03a94dA45B5a4413e21"
        },
        "predecessor": "0x0000000000000000000000000000000000000000000000000000000000000000",
        "salt": "0x0000000000000000000000000000000000000000000000000000000000000000",
        "delay": "0"
    }
}
