{
 "genesis": "0xe3a7d8bae497945ba8ddc51c69564f60ad4c1a990b9c7bdbd27f7929bfa8f272",
 "verifierAddress": "0x4AaBBA26EA9E7A7fbD052d17a167e6aE3F8eC7Be",
 "consensusContract": "PolygonZkEVMEtrog",
 "scheduleData": "0x01d5062a0000000000000000000000005132a183e9f3cb7c848b0aac5ae0c4f0491b7ab2000000000000000000000000000000000000000000000000000000000000000000000000000000000000000000000000000000000000000000000000000000c00000000000000000000000000000000000000000000000000000000000000000000000000000000000000000000000000000000000000000000000000000000000000000000000000000000000000000000000000000000000000000000d2f000000000000000000000000000000000000000000000000000000000000000144f34eb8eb0000000000000000000000002650a9a4fc64f63f573ef0f405064ef54bc46f710000000000000000000000004aabba26ea9e7a7fbd052d17a167e6ae3f8ec7be00000000000000000000000000000000000000000000000000000000000000080000000000000000000000000000000000000000000000000000000000000000e3a7d8bae497945ba8ddc51c69564f60ad4c1a990b9c7bdbd27f7929bfa8f27200000000000000000000000000000000000000000000000000000000000000c0000000000000000000000000000000000000000000000000000000000000005e547970653a207a6b45564d2c2056657273696f6e3a20696e636162657272792c2067656e657369733a202f697066732f516d55586e526f5062556d5a75455a43477969486a45736f4e6346567533684c74537668706e664253326d415955000000000000000000000000000000000000000000000000000000000000",
 "executeData": "0x134008d30000000000000000000000005132a183e9f3cb7c848b0aac5ae0c4f0491b7ab2000000000000000000000000000000000000000000000000000000000000000000000000000000000000000000000000000000000000000000000000000000a0000000000000000000000000000000000000000000000000000000000000000000000000000000000000000000000000000000000000000000000000000000000000000000000000000000000000000000000000000000000000000000000144f34eb8eb0000000000000000000000002650a9a4fc64f63f573ef0f405064ef54bc46f710000000000000000000000004aabba26ea9e7a7fbd052d17a167e6ae3f8ec7be00000000000000000000000000000000000000000000000000000000000000080000000000000000000000000000000000000000000000000000000000000000e3a7d8bae497945ba8ddc51c69564f60ad4c1a990b9c7bdbd27f7929bfa8f27200000000000000000000000000000000000000000000000000000000000000c0000000000000000000000000000000000000000000000000000000000000005e547970653a207a6b45564d2c2056657273696f6e3a20696e636162657272792c2067656e657369733a202f697066732f516d55586e526f5062556d5a75455a43477969486a45736f4e6346567533684c74537668706e664253326d415955000000000000000000000000000000000000000000000000000000000000",
 "id": "0x8bae5e2a8aaf4501e263b917591e7fcf9b1d28c85962a8847a845aff916b50ad",
 "decodedScheduleData": {
  "target": "0x5132A183E9F3CB7C848b0AAC5Ae0c4f0491B7aB2",
  "value": "0",
  "data": "0xf34eb8eb0000000000000000000000002650a9a4fc64f63f573ef0f405064ef54bc46f710000000000000000000000004aabba26ea9e7a7fbd052d17a167e6ae3f8ec7be00000000000000000000000000000000000000000000000000000000000000080000000000000000000000000000000000000000000000000000000000000000e3a7d8bae497945ba8ddc51c69564f60ad4c1a990b9c7bdbd27f7929bfa8f27200000000000000000000000000000000000000000000000000000000000000c0000000000000000000000000000000000000000000000000000000000000005e547970653a207a6b45564d2c2056657273696f6e3a20696e636162657272792c2067656e657369733a202f697066732f516d55586e526f5062556d5a75455a43477969486a45736f4e6346567533684c74537668706e664253326d4159550000",
  "decodedData": {
   "consensusImplementation": "0x2650a9a4fC64f63F573EF0F405064EF54BC46f71",
   "verifier": "0x4AaBBA26EA9E7A7fbD052d17a167e6aE3F8eC7Be",
   "forkID": "8",
   "rollupCompatibilityID": "0",
   "genesis": "0xe3a7d8bae497945ba8ddc51c69564f60ad4c1a990b9c7bdbd27f7929bfa8f272",
   "description": "Type: zkEVM, Version: incaberry, genesis: /ipfs/QmUXnRoPbUmZuEZCGyiHjEsoNcFVu3hLtSvhpnfBS2mAYU"
  },
  "predecessor": "0x0000000000000000000000000000000000000000000000000000000000000000",
  "salt": "0x0000000000000000000000000000000000000000000000000000000000000000",
  "delay": "864000"
 }
}